:020000021000EC
:10B0000000800020A1080200E1080200E30802001D
:10B010000000000000000000000000000000000030
:10B02000000000000000000000000000E508020031
:10B030000000000000000000E7080200E90802002C
:10B04000EB080200EB080200D5CA0100EDFE01008A
:10B050000D0802000000000005C30100EB0802001B
:10B06000EB08020031D90100EB080200EB080200F6
:10B07000EB080200EB080200EB080200EB080200FC
:10B08000EB08020011B50100EB080200EB0802001A
:10B09000EDB50100EB0802007DF70100EB080200AE
:10B0A000EB080200EB0802000000000000000000B6
:10B0B0000000000000000000000000000000000090
:10B0C00010B5064C2378002B07D1054B002B02D07E
:10B0D000044800E000BF0123237010BD00210020C0
:10B0E00000000000E03C0200044B10B5002B03D030
:10B0F0000349044800E000BF10BDC0460000000046
:10B1000004210020E03C0200164B002B00D1144B20
:10B110009D46402292029A1A924600218B460F4683
:10B120001348144A121A00F065F80F4B002B00D098
:10B1300098470E4B002B00D09847002000210400B8
:10B140000D000D48002802D00C4800E000BF00F0C0
:10B150002DF82000290002F0FBFF00F011F8C04696
:10B160000000080000800020000000000000000037
:10B1700000210020B02B0020000000000000000093
:10B18000084B10B50400002B02D0002100E000BFE6
:10B19000054B1868836A002B00D09847200000F008
:10B1A00031F8C04600000000303A020070B50026B9
:10B1B0000C4D0D4C641BA410A64209D1002608F0CA
:10B1C0002BFC0A4D0A4C641BA410A64205D170BD8D
:10B1D000B300EB5898470136EEE7B300EB589847B9
:10B1E0000136F2E7F8200020F8200020F8200020A7
:10B1F000FC20002003001218934200D17047197000
:10B200000133F9E7FEE7C046F8B54E46DE4657463D
:10B210004546E0B5224B1978994600292AD0214BA2
:10B2200000249846204B214F01269A4603E0013422
:10B23000E4B28C421ED243461B6832009C46E500B5
:10B24000654428783B6882401A42F0D093433B60C3
:10B2500001F04EF833002A785146934009680B40BC
:10B26000010091408B420BD04B4601341978E4B277
:10B270008C42E0D33CBC90469946A246AB46F8BD12
:10B280006B689B46002BEFD06B78013B59424B41DA
:10B29000181A414241411000C9B2D847E4E7C046FC
:10B2A0001C2100204C2100204421002048210020A6
:10B2B000F8B5124D0700280000F0F8FC002807D16F
:10B2C0000124BC400E4E33681C4202D0A3433360BD
:10B2D000F8BD380001F00CF80A4A136800280BD1B9
:10B2E000A3431360336800221C43074B28001968EE
:10B2F000346000F061FCEBE72343F2E724210020F7
:10B30000482100204421002020210020F0B5CE4615
:10B31000474680B5060083B00D001400042A36D9D4
:10B3200000F0C6FE00282DD01D4B1E4A1E601E4B8D
:10B330001D701E4B1C60002313601D4A6C1E1360A1
:10B34000E4B2002D25D01B4BE400994603233419A9
:10B3500001AD9846002704E02300083BA64218D020
:10B360001C0043462B70A3786F8020784A46290042
:10B370006B7000F0A7FE0028EED003B00CBC904626
:10B380009946F0BD00F064FE0028CDD0F5E7072017
:10B39000F3E7094A0021094800F0F8FBEDE7C04651
:10B3A0004C210020442100201C21002020210020CD
:10B3B00048210020B1B2010009B20100343A020074
:10B3C00070B5094D2B78002B0BD00024074E326846
:10B3D000E300985C012100F02BFF2B780134A3429D
:10B3E000F5D8002070BDC0461C2100204C21002053
:10B3F000002300B585B001AA9060002103481380A6
:10B40000536000F005F805B000BDC04601400000E3
:10B41000BFF34F8F034B044ADA60BFF34F8FC04630
:10B42000FDE7C04600ED00E00400FA0500290CD05D
:10B43000002A08D0531E1A4005D182600160838023
:10B44000C260002070470920FCE70E20FAE7C046E2
:10B45000030010B59C888068DA68121A04209442B0
:10B4600007D30020DA6814401A681155DA680132EF
:10B47000DA6010BD8268C3689A420AD08368828805
:10B4800013400268D35C0B70836801338360002033
:10B4900070470520FCE7C04680218023184A8902B6
:10B4A000D1508022D221174B520289005A50403984
:10B4B0005A5001222F205A600138C046C046C0466B
:10B4C000C046C046C046C046C046C046C046C0464C
:10B4D000C046F1D19A6000230B4A2F201360013837
:10B4E000C046C046C046C046C046C046C046C0462C
:10B4F000C046C046C046C046F1D1044A13707047EA
:10B5000000E100E0001001406421002055210020EE
:10B51000A021F0B50023C6462B4A490000B5535080
:10B520000431535004315350043153504C3953506B
:10B5300004315350254B1B68002B35D0244900257E
:10B540005458244A244F1268A41A00222402240AC0
:10B55000904602E0002E18D033001A68A24214D898
:10B56000A41AAD181A7CDE69002AF3D04246996904
:10B570001A745A693B68002B19D0100098470028AC
:10B58000E8D0FFF735FF002EE6D11449144A0B78B6
:10B5900012789A420ED0134A9B009D50802180233E
:10B5A000114A5B004903D15004BC9046F0BD08002D
:10B5B0009047CFE70132D3B2022B01D00B70EAE7FC
:10B5C00000230B70E7E7C046001001406C2100200B
:10B5D000040500006421002050210020612100208A
:10B5E000602100205821002000E100E0F0B54E4627
:10B5F000DE4657464546E0B5B24BB34A9946B34995
:10B600001B688DB0039309781378994200D1C1E18A
:10B610000133DBB2022B00D128E11370AC4A9B004E
:10B620009B584A469C46039B63441B021B0A079394
:10B63000136001230A93A74B1968A74B1B789B46FD
:10B64000A64B5C461A68A64B049218785B46013BF1
:10B65000DBB20B900993002C00D1A1E1DB009846EE
:10B66000079B42440293002315000A0006930193AE
:10B670009C4B0590089328786F78B8421FD03E0005
:10B680006B68440024189A460130AB78C0B21B1A8C
:10B690005F1EBB41E4005B42544418402378022BF8
:10B6A00014D0032B09D1002A07D000231374D269C8
:10B6B000002AFAD101236E780193B042E0D12B0029
:10B6C0000498083BA84238D01D00D4E76368002ADC
:10B6D000F3D093421CD0140000E03C00E769002F37
:10B6E000EBD0BB42F9D1A3420AD0FB693E68E361CB
:10B6F000002B03D01C68A24656441E606E78DCE71F
:10B70000D269002A0DD001241E68DB610194F1E7A3
:10B71000D36914001700002B03D01A0001230193F2
:10B72000E3E70122089B9A6001230193002302931F
:10B730000133002206930593D7E7069B002B00D127
:10B7400037E1674B059818704B4602981860019BCB
:10B75000002B00D192E15F4B891A1A604B1E994170
:10B76000CBB201930A9B002B00D08EE10027049BF3
:10B770001400434418000023904603933A1E2DD032
:10B78000936851689C461300D269029D564E4D1B2A
:10B790002D022D0AB54254D8290000260125614406
:10B7A00019605E609E601D74DE61002C5AD02768AF
:10B7B000A3468C468F427AD26146C91B8A465946B7
:10B7C000CD69002D5DD1AC46514619606146D96105
:10B7D0005946CB6123001C00002AD1D194464378FE
:10B7E00001788B4246D0827847684D006D18013150
:10B7F000ED00C9B27D1901708A4202D100210170A9
:10B8000000212E78012E33D16E68B246367C002E90
:10B810002ED15346A96837005960EE6862469E6093
:10B82000B4462E69DE606D699D61059D002DACD02A
:10B830000021029D2C4E4D1B2D025F602D0AB5424A
:10B84000AAD9029D691A0902090A614524D26546EE
:10B850000026691A012519605E609E601D74DE6114
:10B86000002CA4D101211C000391B5E70023D4E6EC
:10B870008B42BAD10300049A083B824236D01800AA
:10B88000ADE72968514519D36646AC460D00ED1960
:10B89000A91B6546296097E7002501211D605D60B1
:10B8A0009D601974DD61002CDCD000212768791AB5
:10B8B00021600121DC6103911C008DE7AB46D44679
:10B8C0000F0079E764210020602100206121002021
:10B8D000582100206C2100206821002070210020C8
:10B8E0005421002000100140FEFF7F00039B4246D0
:10B8F000002B00D15AE0664B1C60944202D1019BA0
:10B90000002B3DD0002C00D17AE0624A62482368C7
:10B9100081584A461468614D0A1B12022E78120A99
:10B920000332A946002E49D0934200D213001B19BE
:10B93000A82459481B021B0AE400564D03514259E2
:10B940005B1A521A1202120A1B0203321B0A9A4293
:10B9500016D9435903512F200138C046C046C0466E
:10B96000C046C046C046C046C046C046C046C046A7
:10B97000C046F1D180238021494A5B008902D15021
:10B980000023484A13700DB03CBC90469946A2462D
:10B99000AB46F0BD039B079300239C460A934AE6FF
:10B9A0000A9B002B2FD10A000A9B0193384B1C687D
:10B9B000A3E70B9B0593079B0293C8E68026D1273C
:10B9C0007602BF00C651403FC6518027C026344D85
:10B9D000BF027600AF5101262F6006602F2001388C
:10B9E000C046C046C046C046C046C046C046C04627
:10B9F000C046C046C046C046F1D14846067093E7EF
:10BA0000FFF74AFDBCE7079B02930B9B05930029B8
:10BA100036D00B689C4535D30027002000256646AC
:10BA200003E013681100B3421CD8CC68F61AC018A2
:10BA30000D60CA69002C07D0CF610F00039B8C609A
:10BA40001B181B021B0A4B60002AEAD1104B1A601C
:10BA500000225B46002B0DD001230193099BDB00E4
:10BA6000984684E60A49B4460A60110060461B1AEB
:10BA70000B60EEE7012311000A9394E70A0071E6D8
:10BA80000027E5E70A000027F0E71100BFE7C046FE
:10BA90006C21002004050000001001405521002009
:10BAA00000E100E054210020F8B5CE46994603237A
:10BAB00047461D0080B506000F001400984615404B
:10BAC00047D1002A47D0FFF7E7FC4A46244B002124
:10BAD0001A604246234BC5201A70234B7A001C6023
:10BAE0002300D219D200183363609B18E3609B18BF
:10BAF00063611E4BC0221D601D4B258019701D4BBC
:10BB0000A770197080212581A7722582A774FF2450
:10BB1000194B49035200995080001A58A2433F3CE8
:10BB200022431A50A122C4241448D2001960A40050
:10BB300086501A5912491140C02212020A431A5162
:10BB4000104BC258104B1A6028000CBC9046994606
:10BB5000F8BD0725F8E7044B1D600735F4E7C0463C
:10BB60005021002068210020702100206C2100203D
:10BB7000602100206121002000E100E00010014070
:10BB8000FF00FFFF0405000064210020094B1B6833
:10BB9000002B0AD0002A0AD0002808D00368187C9D
:10BBA000002802D159745A6170470820FCE7072029
:10BBB000FAE7C04670210020F0B5C64600B5364B06
:10BBC0001B68002B53D0002851D0042960D9446948
:10BBD000002C4CD0447C012C4BD00024A446EFF325
:10BBE0000584E405E40D17D003252E00103C67B250
:10BBF000E4B22640F600002F3DDBBF08C037274CDB
:10BC0000BF003C59F440A4092540EDB2012D04D0F9
:10BC1000032D01D1083300E010335E789D78771C46
:10BC2000FFB2ED1B6C1EA5411C786D422F40BC423B
:10BC300030D05D687400A846A419E4004444002C88
:10BC400028D00125606025701548164D2858E16000
:10BC50006146A0602161626180215F7080230020C5
:10BC60000E4A5B004903D15004BC9046F0BD082049
:10BC7000FAE78C46B3E70F273C400B4F083CB84629
:10BC8000A408A40044446468F440A4092540BCE727
:10BC90000720E9E70420E7E77021002000E100E049
:10BCA000040500000010014018ED00E030B52D4BF8
:10BCB0001B68002B44D0002842D04269002A3FD0A4
:10BCC00000220274EFF30582D205D20D20D1103389
:10BCD0005C789A78611CC9B2521A551EAA41524228
:10BCE00011401A788A423AD0620012195C68D20078
:10BCF000A4466244002A32D0022450601470597065
:10BD0000802380210020184A5B004903D15030BDB8
:10BD100003210D00103A54B2D2B21540ED00002CB0
:10BD200010DBA408C034104AA400A258EA409209CB
:10BD30001140C9B20129CBD00329C8D10833C7E7C4
:10BD40000820E4E70F242240084C083AA446920851
:10BD5000920062445268EA4092091140E9E70420E7
:10BD6000D5E7C0467021002000E100E018ED00E0BA
:10BD7000002804D0034B5B6D036000207047032054
:10BD8000FCE7C046742100200FB400B583B004A9BD
:10BD900001C9019106F0A4FD03B008BC04B0184726
:10BDA00070B5161E07DD0C008D182078013400F0E8
:10BDB000DDF8AC42F9D1300070BDC04610B50C00C2
:10BDC000200000F0B9F80528FAD0012010BDC046C7
:10BDD00030B5047885B0012C19D0022C42D0002C4B
:10BDE00001D005B030BD264D264C29002000FFF7BC
:10BDF00041FB002831D0A268E3689A42F1D10323C5
:10BE000002AA1370204B10001B689847E9E74368AB
:10BE10001E4D19782800FFF71BFB002815D1AA68D2
:10BE2000EB689B1A012B05D102AB1870164B02A8C8
:10BE30001B689847A968AA88EB685B1A9A42D0D316
:10BE40000121134800F0A8FDCBE702AB1C700E4B9C
:10BE500003901B6802A89847ECE70121280000F036
:10BE600039FDC8E702AB1C70C36801210848019383
:10BE7000039300F091FD044B02A81B689847B0E7BC
:10BE8000F4210020E0210020CC210020D02100203E
:10BE9000F0210020F0B51E00214B89B005000C1EDA
:10BEA0001A603AD08A881F480968FFF7BFFA00284D
:10BEB00001D009B0F0BDA289A1681B48FFF7B6FA0E
:10BEC0000028F6D168460200184B92CB92C292CB62
:10BED00092C212CB12C2AB6883612B7906775A1ECD
:10BEE000934103756B795A1E93410E225B421340B6
:10BEF0004375EB788360AB78C3602B7843606B78D5
:10BF000000930B4900F058FC0028D2D100F0CCFD82
:10BF10000121084800F040FDCBE70720C9E7C046F3
:10BF2000CC210020D0210020E0210020383A02005E
:10BF3000D1BD0100F021002070B50A4C0500A168B8
:10BF4000A288E3685B1A9A4204D029002000FFF718
:10BF500091FA70BD0121044800F01EFD0028F4D0C4
:10BF60000520F6E7D0210020F021002070B50D4D0E
:10BF700001002800FFF76CFA041E01D0200070BDFC
:10BF800000F002FD0028F9D1074E28003100FFF72C
:10BF900071FA0028F2D10121300000F09BFC04006E
:10BFA000ECE7C046E0210020F421002082B001909F
:10BFB000019B002B14D0019B0A48013B01930138DF
:10BFC000C046C046C046C046C046C046C046C04641
:10BFD000C046C046C046C046F1D1019B002BEAD105
:10BFE00002B07047E703000030B5FF2503232A00A5
:10BFF000C4B22340DB009A4089010D40D2439D40EA
:10C00000002814DB104B80089C46C023800060444D
:10C010009B00C1580A401543C5501F23C0211C4036
:10C020001E3BA340084A49005350136030BD0F2304
:10C03000064923408C46083B9B089B006344D96912
:10C040000A401543DD61E8E700E100E000ED00E0B3
:10C0500070B54425144C635D002B22D10120404271
:10C06000C117013B20626162A062E16220636163EB
:10C07000A063E16323640321073023606360A3604E
:10C08000E36023616361A361E361FFF7ADFFC12357
:10C090008021064A9B000906D150012300206355E8
:10C0A00070BD0820FCE7C046F82100200060004079
:10C0B0004423034AD05C431E9841C0B27047C04637
:10C0C000F8210020F0B5CE46474680B5554B914645
:10C0D0001C182034267808257F2E35D9CF78002FDC
:10C0E00037D01A68013200D18CE004220124944632
:10C0F000A5005E59721C34D0661CB5005A59013235
:10C100002ED0A61C66451ED2B5005A59013227D042
:10C11000E61C664517D2B5005A59013220D0261DBB
:10C12000664510D2B5005A59013219D0651D6545D2
:10C1300009D2AE009E59721C6AD00634644502D200
:10C14000DA6901325BD0042528000CBC9046994680
:10C15000F0BD1A6901325ED0082205249446C7E773
:10C1600034001A18944620229046C444624666B2AF
:10C1700016704A465A51002F02D11C193C342070C7
:10C180008A78002A26D0A024E405A446E0250227C8
:10C1900082006244ED005459BC4354510A78C97876
:10C1A000002924D02049B3008C46A2216344C90051
:10C1B0005C581E4D00022C40F8256D012840C0251A
:10C1C0005C50AD0212045C582A4010432043585082
:10C1D0000025B9E70200A0254C78C132FF32920059
:10C1E000A400ED0554510A78C9780029DAD19B19C9
:10C1F0003C33197892010A431A700025A4E70724FA
:10C200001C25AEE700254A4625701A600026B7E7D0
:10C210002C00AD00A5E704254A4625701A610426C6
:10C220000424AAE7F821002000600040FFE0FCFFA2
:10C230000023F0B52B4C22182032D356032B1FDDE0
:10C24000E3183C331B789B09032B3AD0013B5A1E61
:10C25000934180225B425202134080229202944614
:10C260006344A022D2059446E02280006044D200BC
:10C2700081581D4C2140815081580B438350F0BDA3
:10C28000D8B20328FBD8194DA227AC460126980046
:10C290006044FF00C5593543C55118006546002765
:10C2A0004030800080B247510029E8D0127852B265
:10C2B00092001259002AE2D09E40C1239B00EE500A
:10C2C000DDE7A022A223D205DB00D3580122824061
:10C2D00013405A425341C022920294465B421B04CF
:10C2E0006344BEE7F8210020FFFFFCFF0060004030
:10C2F000A022A223D205DB00D358C340012018405E
:10C300007047C046F0B54546DE4657464E46E0B556
:10C31000C34A83B013680025012B00D1A6E1C14BAD
:10C320001A68012A00D195E1BF4B1A68012A00D191
:10C3300084E1BE4B1A68012A00D155E1BC4B1A6852
:10C34000012A00D19CE1002D06D103B03CBC9046EF
:10C350009946A246AB46F0BD0023984603239A4671
:10C36000B44BA227012600249946FF002E420CD090
:10C37000B14AA3009A18D059D1595246090C11401C
:10C380004A46C004C00ED358984701347600042CA6
:10C39000ECD1002DD9DA00230125994640339B4684
:10C3A000A44C6D425B46E1564B1C2BD0C9B2C02356
:10C3B000080098432B000122C34000271A4222D0D4
:10C3C000231820331B7889095BB29B00E358002BAC
:10C3D00000D1E3E082401700032900D1E3E0A0266A
:10C3E000F605B446E02682006244F6009659B6038C
:10C3F000B60FB4464646374200D0ACE06646032E40
:10C4000000D149E100274123E1564B1C2ED0C9B28F
:10C41000C023080098432B000122C3401A4225D0B4
:10C420008B090093231820331B785BB29B00E358E1
:10C43000002B00D1C5E082409446009A032A00D127
:10C44000C5E0A026F605B246E02682005244F6007A
:10C4500096591100B603B60FB246424666461642DA
:10C4600000D081E05246032A00D173E14223E15615
:10C470004B1C2DD0C9B2C023080098432B000122C9
:10C48000C3401A4224D08B090093231820331B7811
:10C490005BB29B00E358002B00D188E082409446B9
:10C4A000009A032A00D187E0A026F605B246E026CE
:10C4B00082005244F60096591100B603B60FB246F8
:10C4C0004246664616425DD15246032A00D124E117
:10C4D0004323E1564B1C26D0C9B2C0230800984321
:10C4E000C540BF3B2B421ED022182032127889094A
:10C4F00052B29200A258002A6ED083401D00032938
:10C500006ED0A026F605B446E02683006344F6000C
:10C510009E59B603B60FB4464646354211D165461C
:10C52000032D00D1D8E0002F00D10EE7A022A223D6
:10C53000D205DB00D3584D46984500D105E7984613
:10C5400030E76546022DEED1032900D12BE1002A08
:10C55000E9D09047E7E76646022E00D052E703296C
:10C5600000D114E10027B2E05246022A00D07DE754
:10C57000009A032A00D10EE1002B00D176E7009942
:10C58000984773E75246022AA2D1009A032A00D1A3
:10C5900005E1002B9CD00099984799E7032900D02A
:10C5A00031E7824017004A463A43914617E700991F
:10C5B00003298DD1824094464A46664632439146CD
:10C5C00072E70099032900D050E7824094464A461A
:10C5D00066463243914634E70329A4D183401D00C7
:10C5E0004B462B4399468CE7C12213499200895848
:10C5F00008220A4200D1A1E6002119600C4B154324
:10C600001A68012A00D0A7E61960A022A223D20549
:10C61000DB00D358984680231B061D439EE6C04688
:10C620000061004004610040086100400C6100406E
:10C630007C610040F821002000600040C1225C497C
:10C640009200895804220A4200D172E60021154363
:10C6500019606EE6C12256499200895802220A42A8
:10C6600000D161E60021154319605DE6C121504803
:10C67000890045581D4000D151E6002313604EE665
:10C6800000221A60A022A223D205DB00D3589846CC
:10C69000002D00D17FE6BEE7032900D062E78026A7
:10C6A000B6020096E027FF00D659B446414EB24686
:10C6B000664657463E40E027FF00D651D659B4465D
:10C6C0006746009E3E43E027FF00D6510127002B1E
:10C6D00000D198E6984796E6032900D037E78025F1
:10C6E000AD020095E026F6009E59B446314EB246A2
:10C6F000664655462E403500E026F6009D519D5970
:10C70000009E2E433500E026F6009D51002A00D100
:10C710000CE70137FFB2904705E7009A032A00D0E3
:10C7200037E7802292020192E022D2009246214E07
:10C730008A58013732409446524666468E508A588F
:10C74000FFB294466646019A324394465246664684
:10C750008E501EE7009A032A00D00DE78022920235
:10C760000192E022D2009246124E8A58013732409E
:10C770009446524666468E508A58FFB294466646A4
:10C78000019A32439446524666468E50F4E6C026DD
:10C79000B602009686E7C02292020192E1E7C0222B
:10C7A00092020192C0E7C025AD0200959AE7C0460B
:10C7B00000600040FFFFFCFFF0B5D6464F464646FE
:10C7C000C0B53A4CE37E002B6ED1002868D00268D9
:10C7D00001339340A022A125D205ED005351A94673
:10C7E00003250368AA46C133FF339B009D500025F3
:10C7F0004368AC46C133FF339B009D5087692C4B87
:10C800002C4D5F51077D457D3D432B4FDD514568E4
:10C810000768A846294D5F514746294D5F51057D60
:10C82000012D19D187683E00E0277F00B8464644B5
:10C83000B7006646BE50C668B5404E46955156464E
:10C84000C568C135FF35AD00AE504E46C26885683B
:10C850009A51A222D2009D50036961602360002991
:10C860000DD00023174A017F1360174A1748136041
:10C87000C1230F4A9B00D0500220FFF7B5FBA02335
:10C8800004210B4ADB00D1500023E382237680236E
:10C8900000205B0063831CBC90469946A246F0BD15
:10C8A00080230B489B0095E70820F4E740220020F6
:10C8B00000200040240500006C0500000C0500006D
:10C8C000140500001C2100404421004080000200AB
:10C8D000583A0200F0B5264B9A7D002A16D1012560
:10C8E0009975244C24499A8298600A6025600A60F0
:10C8F0009A8A224C855C9A8A2148013292B29A82A5
:10C9000025505A68002A03D00020F0BD1120FCE712
:10C910002500002704000132FF329E7D988AB04234
:10C9200003D312E0988A904202D008680028F9D018
:10C93000988A9042F2D00F60988A9E68365C988AF6
:10C94000013080B298822E51E7E78022998A520006
:10C9500091420AD008490A68002AFCD0012100202F
:10C96000084A116000229A75CFE70F20FAE7C04607
:10C9700040220020082000401C21004000200040F0
:10C980001C0500000C200040024B987D431E98417E
:10C99000C0B2704740220020F0B53D4B5A68002AD3
:10C9A00005D0C22481263B4DA400B6002E51DC7D6B
:10C9B000002C0ED01C7E002C59D118611976002A4B
:10C9C00018D0C12381210020324A9B008900D15018
:10C9D000F0BDD975997ED8605C761C760029EED1C1
:10C9E0002D4A11602D4A116001212A4A11605A68AE
:10C9F000002AE6D12A4FA3253A60274A27499446C0
:10CA0000244EED006246146808683A68002809D18F
:10CA1000002A27D00021D975002C26D10F20002A0A
:10CA2000D6D114E020001043F4D1DA7D002A16D0CC
:10CA300008605A7EDC687059A0545A7E0132D2B226
:10CA40005A765A7ED87D9042DCD80022DA759B7ED9
:10CA5000002B16D001220F4B00201A60B8E70A60A5
:10CA60007259EEE7002CCDD0DA750320B0E7002A2A
:10CA70000CD0C1238121074A9B008900D15011208D
:10CA8000A6E70122074B00201A60A1E711209FE7CB
:10CA900040220020002000402421004008210040C6
:10CAA0004421004004200040064A937E002B07D119
:10CAB00005490B6005490B60054901330B6093760E
:10CAC0007047C04640220020242100400821004039
:10CAD00000200040C12210B5604B92009A5884B0EB
:10CAE000920556D55E4A1168002952D00021116086
:10CAF000C22281219200890099505A4B9A7E002AC5
:10CB000002D10121584A1160022269460A7090211F
:10CB10005248C9004258425069460392DA7D68463D
:10CB20000A72DA68196801920022DA751A765B686F
:10CB300098474E4A1368002B10D04A4B988A997D2B
:10CB4000814264D9002111609A8A9968895C9A8A25
:10CB5000013292B29A82414A454BD150454B1A68F4
:10CB6000002A14D000221A603E4B9A7E002A4AD135
:10CB7000DA7D002A0BD0002268460121DA755A7E40
:10CB800001700272DA68196801925B68984704B014
:10CB900010BDC123314A9B00D3585B07C9D5364924
:10CBA0000B68002BC5D02F4BD87D00283ED000202D
:10CBB0000860A320C000597E1258D86842545A7E9B
:10CBC0000132D2B25A765A7ED97D9142B1D11A7EC3
:10CBD000002A30D19A7E002A02D10121224A116016
:10CBE000C22281201D4992008000885000226846A0
:10CBF0000121DA755A7E01700272DA6819680192B1
:10CC00005B68984795E70121144A1160B0E700205E
:10CC100010600029A2D06A46107011729A68987547
:10CC2000196801925B686846984797E70860A321F6
:10CC3000C9005258C7E7DA751A69D968DA60002264
:10CC40006C46587E1A765A76013220720191227013
:10CC5000196868465B6898476BE7C046002000404B
:10CC60002421004040220020042000401C210040DC
:10CC70001C0500004421004008210040074B1B68B0
:10CC80005B0706D5002806D0054B5B7803600020C3
:10CC900070470820FCE70E20FAE7C0462823002052
:10CCA0005C2200208021A022090410B50C00A120E4
:10CCB000044BD205D358C0009C430B40024914508A
:10CCC000535010BD040500000C05000070B50400B1
:10CCD000172800D9B6E1DC4A8300D3589F4680214B
:10CCE000A022C9030C00A120D84BD205D358C00004
:10CCF0009C430B40D64914505350D64B00221B681E
:10CD0000D5489900C918FEF757FF70BD8021A022B1
:10CD1000C9030C00A120CD4BD205D358C0009C43C1
:10CD20000B40CB4914505350CA4B00221968CA48D3
:10CD3000FEF742FFE9E7E022C84B52041B68A1213D
:10CD40009A43A023C900DB0580245A500022C04822
:10CD5000A4031A501C505A50C14B07321A700020BD
:10CD6000D3E7A023A122C021DB05D2004904C024BF
:10CD700099500021B648E40319501C5099501522CF
:10CD8000B74B00201A70C0E7A023A122D021DB05F9
:10CD9000D2004904802499500021AD48E403195081
:10CDA0001C5099501422AE4B00201A70ADE7AB4BCB
:10CDB000A1211A68E0235B049343A0220025D20539
:10CDC000C900A3485350A14B1550D458F0235B041D
:10CDD00063408024A403234000D025E11450535025
:10CDE00002239F4A03211BE09C4BA1211A68E023E8
:10CDF0005B049343A0220025D205C90094485350F8
:10CE0000924B1550D458F0235B0463408024A40354
:10CE1000234000D004E11450535004230421904ACD
:10CE200011708C4A8C48116800225943FEF7C4FEE9
:10CE30006BE78A4BA1211A68E0235B049343A0228D
:10CE40000025D205C90082485350804B1550D45854
:10CE5000F0235B0463408024A403234000D0DCE083
:10CE60001450535005227E4B7B481A70794B002298
:10CE700019684900FEF7A0FE47E7784BA1211A6820
:10CE8000E0235B049343A0220025D205C90070482B
:10CE900053506E4B1550D458F0235B0463408024EC
:10CEA000A403234000D0B5E01450535006226C4B2D
:10CEB0001A7039E7A023F021654ADB05490499502F
:10CEC0000021043A99500C22654B00201A701CE78F
:10CED000644D2800FEF7EAFE11231C1B00D18AE0F6
:10CEE000002800D087E080235C4E1B043360012CB7
:10CEF0000FD0C8306421604303F0F8FC554B00228A
:10CF0000196841432800FEF757FEF02233685204A7
:10CF10001340A0224E49D2055350A1230021DB002B
:10CF2000D150F2E6A023A122F021DB05D200490472
:10CF300099500021464A002099501222484B1A70FD
:10CF4000E3E6A023A122E021DB05D20049048024EE
:10CF5000995000213E48A40319501C5099501322A7
:10CF60003F4B00201A70D0E6A023F021384ADB05A1
:10CF7000490499500021043A9950394B1870002007
:10CF8000C3E6364BA1211A68F0235B049343A02229
:10CF9000C900D205535000232D4900205350304A78
:10CFA0001370B2E62D4BA1211A68E0235B04934372
:10CFB000A0220026D205C90025485350234B165005
:10CFC000D558F0235B046B408025AD032B402FD157
:10CFD00015505350A11E4B425941012349429943D8
:10CFE00004311F4B00221C701A4B1B481B6859430D
:10CFF000FEF7E2FD89E6F023184A5B041168A124DC
:10D000000B40A021E400C9050B510023104C0B512B
:10D0100013607AE65450155048E75450155021E7F4
:10D02000545028231550F9E6545008231550D8E6DB
:10D030005550A11E4B425941152349429943165060
:10D040002831CEE7002060E6783A020004050000AF
:10D050000C050000542300208823002030230020EA
:10D06000AC23002034230020F8B5CE464746040008
:10D0700080B5112809D0122839D0132839D01428A6
:10D0800039D00CBC90469946F8BD0025012911D035
:10D0900000291FD00229F4D16B005B191F4DED1838
:10D0A0006E78002EEDD01E4B1B68002BE9D03000AF
:10D0B0009847E6E7194F6B0098465B19FE5CFB1832
:10D0C0005B78002B19D143465B19FF18BA78154BD2
:10D0D0005A55E6E71448FEF7E9FD6A000F4B52196E
:10D0E0009B189E780F4B5B5DB342CAD1D9E70125EF
:10D0F000CCE70225CAE70325C8E70C4B0A48994646
:10D100000B4B4A461B689900C9184900FEF754FDAD
:10D110000028D8D14B461C70D5E7C04678230020A4
:10D12000A8230020B0230020582300202C23002017
:10D130005423002010B5054B1B68DB0700D410BD3D
:10D14000034B1878FFF7C2FDF9E7C046842300209F
:10D15000AC23002010B50378112B15D0122B15D05D
:10D16000132B03D00322142B01D010BD0222530035
:10D170009A18074B9B1858780028F6D0054B1B6867
:10D18000002BF2D09847F0E70022F0E70122EEE70B
:10D1900078230020A8230020002303280DD8A022F4
:10D1A000A223D205DB00D258054B8000C0580123D2
:10D1B000834093435A1E9341DBB200200B707047AB
:10D1C000003B02000100012010B5044B1B68184011
:10D1D00000D110BD0800FFF779FDFAE78423002095
:10D1E000294B10B51960294B01241860284B0440C5
:10D1F0001A60022318402CD00D22264B26481A70A4
:10D200000132DA7001329A7101325A724A080421ED
:10D21000FEF77CF800282AD0002C19D0A023F02299
:10D22000A1210024DB055204C9005A501B495C505F
:10D230000C315A5000280BD1194A00211948FEF729
:10D24000A5FC002804D1184A01211848FEF79EFCCD
:10D2500010BD002CF0D0A023F022A121DB05520448
:10D26000C9005A500D4958500C315A50E4E7FEF7A6
:10D27000A7F80028D0D10E4A00210E48FEF786FC00
:10D28000002CD7D0CAE7C0465423002084230020B6
:10D29000A823002078230020D83A02000C050000C3
:10D2A00035D10100103B0200A5CC0100F83A020084
:10D2B00055D10100FC3A0200032807D8012A07D003
:10D2C00001290BD0002916D002290DD00720704764
:10D2D00000220129F4D102000D32D2B24300181805
:10D2E000084BC2540020F2E743001B180548C01841
:10D2F00042700020EBE743001B180248C018827000
:10D300000020E4E778230020E0231D4ADB00D25808
:10D310000123034001D0C0239B021A490A40134352
:10D32000E0221749D2008B50174B9A580223034032
:10D3300001D0C0239B0213490A401343E022124943
:10D34000D2008B50114B9A580423034001D0C023C4
:10D350009B020C490A401343E0220C49D2008B5037
:10D360000B4B9A580823184001D0C0208002054B6F
:10D370001A40E0231043064ADB00D05000207047DB
:10D3800044000050FFFFFCFF480000504C000050DC
:10D390005000005010B50320FFF7B6FF002804D05E
:10D3A000831F5A1E93415B42184010BD10B503887D
:10D3B000102B08D0112B05D1294A1368013B1360AB
:10D3C000002B07D010BD264C2368002B24D001333E
:10D3D0002360F7E7012202210020FFF76DFF0028FC
:10D3E00007D0072805D01F4B1B68002BEAD09847B1
:10D3F000E8E7072202210120FFF75EFF002801D0A5
:10D400000728F0D10A2200210020FFF755FF00284D
:10D41000D8D00728E7D1D5E7012200210020FFF767
:10D420004BFF002808D0072806D00E4B1B68002BA6
:10D4300000D098472368CAE7072202210120FFF79E
:10D440003BFF002801D00728EFD104220221002051
:10D45000FFF732FF0028EDD00728E6D1EAE7C04603
:10D46000B8230020B423002010B5234B82B00C1E3B
:10D47000186015D06B460020991DFFF78DFE00281F
:10D4800001D002B010BD6B460130D91DFFF784FEFC
:10D490000028F6D16B46DB79002B23D002232370C2
:10D4A000164B1B68002B01D00020EAE70122022165
:10D4B0000020FFF701FF002801D00728E1D1072253
:10D4C00002210120FFF7F8FE002801D00728D8D15B
:10D4D0000A2200210020FFF7EFFE0028E4D00728F1
:10D4E000CFD1E1E76B469B79002B02D00B23237051
:10D4F000D6E72370D4E7C046B4230020B823002029
:10D5000076DF70477ADF70477CDF70477FDF7047D8
:10D51000A9DF70473CDF70470122014B1A7070474A
:10D52000582A002010B5FDF763FF10BD70B5160036
:10D530000C000025002A08D02078FEF717FD0028EF
:10D54000FAD101350134B542F6D30A20FEF70EFDBB
:10D550000028FAD170BDC04610B50378002B00D06A
:10D5600010BD054B3B211888FFF7CAFF0028F7D0F4
:10D57000FDF73EFFF4E7C046EC20002010B50400A4
:10D5800001F044FE2100214801F09EFE2388112B6A
:10D590002BD013D9132B1CD0522B08D11C4B00229B
:10D5A000188800210023FFF7B3FF00281AD12000BC
:10D5B00001F0AEFC2000FFF7F9FE10BD102BF6D1F4
:10D5C0000720FFF7FFFD00281CD1A288104B1A800E
:10D5D000EDE70F4B0022188885210023FFF796FF07
:10D5E0000028E4D0FDF704FFE1E70020FFF7EAFDA3
:10D5F000002804D10122064B52421A80D7E7FDF7DA
:10D60000F7FEF7E7FDF7F4FEDFE7C046F825002058
:10D61000EC20002010B5072804D00A2811D00428D7
:10D6200009D010BD01F0E2FC082302009A43F8D0B3
:10D63000FDF7DEFEF5E70D4B13211888FFF760FFBD
:10D64000F2E70020FFF7BEFD00280BD1FFF7A2FE96
:10D65000002804D1FFF75EFF0028E2D0E8E7FDF7DD
:10D66000C7FEF7E7FDF7C4FEF0E7C046EC20002058
:10D6700070B50378012B03D0002B05D0022B02D10B
:10D680004068FDF7B5FE70BD0F4C104D207828188E
:10D69000FEF752FC22780132D2B2AB18013B1B7864
:10D6A00022700A2B01D0132AEDD992B22900084822
:10D6B00001F0F8FE082302009A4302D100232370F0
:10D6C000E1E7FDF795FEF9E7EC250020D8250020DD
:10D6D000F825002010B5002807D0032804D1013810
:10D6E000FFF770FD00280DD110BD0020FFF76AFD87
:10D6F00000280AD1FFF74EFE00280CD1FFF70AFFE1
:10D700000028F1D0FDF774FEEEE7FDF771FEFFF79C
:10D7100041FE0028F2D0FDF76BFEEFE7F0B54E4674
:10D720009146A022D205574692460E22DE46454635
:10D7300093460623E0B5C5B003AE3370051D002344
:10D74000584688465146314C314A324F23708850F2
:10D75000009301223100380002F084FFA1235246D9
:10D760005946DB00D15023782D02002B05D140BF54
:10D7700020BF20BF2378002BF9D0022333702B0C5D
:10D780002D0AB57000254A46414604A87370F5700D
:10D7900004F0A0FFA0230E221D49DB0525705A507E
:10D7A00004395A50380000230095F632310002F057
:10D7B00059FF2378002B05D140BF20BF20BF23781D
:10D7C000002BF9D00B2104236944A0250B700E26F1
:10D7D00000230F4AED0523703800AE50009301225C
:10D7E00002F040FFA123DB00EE502378002B05D18F
:10D7F00040BF20BF20BF2378002BF9D045B03CBCF0
:10D8000090469946A246AB46F0BDC046582A002035
:10D810000C050000743B02000E22F0B5C6460F2531
:10D820009046062300B584B06D44A0272B70414676
:10D830000023394C394A3A4EFF0523703000B95065
:10D8400000930122290002F00DFFA1234246DB00D4
:10D85000FA502378002B05D140BF20BF20BF23788A
:10D86000002BF9D00E220E21904660236944A02798
:10D870000B7040460023294AFF052370B8500093DF
:10D880000122300002F0EEFEA1234246DB00FA50F6
:10D890002378002B05D140BF20BF20BF2378002B69
:10D8A000F9D00E2204239046A0272B704146002376
:10D8B0001A4AFF0523703000B95000930122290055
:10D8C00002F0D0FEA1234246DB00FA502378002B61
:10D8D00005D140BF20BF20BF2378002BF9D0002303
:10D8E0000222104C104D2360104BFF211A702800AB
:10D8F000FE32FDF77FFC2068032809D8802229002A
:10D900005200FFF70BFF2368581C20600328F5D94D
:10D9100004B004BC9046F0BD582A00200C0500005D
:10D92000743B0200D4250020702A0020722B0020B6
:10D93000A023064A5B00D158002905D00021D15010
:10D94000034A1368013313607047C04600900040DB
:10D9500018270020A023F0B50C21C646304ADB056D
:10D9600000B59950EA210322C9005A502D4984B0CC
:10D970005A5080212C4A8905995080214903995099
:10D9800069460A00294B050051CB51C21B68284843
:10D990001360284B284A009302F08EFD00283CD1EA
:10D9A00002F020FC8023A024A12680279B05984616
:10D9B000E405F6007F03A3516420A751FEF7F6FAB1
:10D9C0004246194B0421E2500022E7501B4B8020B5
:10D9D0001A601B4B02329A51A222D2009950194967
:10D9E000303299508026C1210122C227B600890019
:10D9F00040029A5158501449BF00C859134C044072
:10DA0000C02000022043C8510E60DA601A60104B3B
:10DA10001D6004B004BC9046F0BDFDF7E9FCBFE713
:10DA200024070000740700000C050000143B0200EE
:10DA3000743B02000F100D0E19D5010018270020AD
:10DA40000090004040420F0000E100E0FF00FFFFB7
:10DA500014260020F8B5454B1B78002B47D1444BCA
:10DA6000444D186804F082FC434A444B03F03AFEEC
:10DA70002C780600E4B20F00002C22D0404B1D6829
:10DA80000124FA213F4B404A5C649858890002F017
:10DA90002DFF04F06BFC3B00320002F0D1FF02F0DE
:10DAA000B1FF3A4B401B1B68984206D9384B1A7895
:10DAB000002A02D11C70374B1C700F20FEF776FA3B
:10DAC000F8BD0122FA212F4B2A705A642E4A890090
:10DAD000985802F00BFF04F049FC3B00320002F0C2
:10DAE000AFFF02F08FFF264B05001860C8E7214CFE
:10DAF0002378002BE1D0264B1A78002A1ED1012171
:10DB0000254A8020137880054B401370A021A12264
:10DB1000C905D2008850802040038850002B10D0C7
:10DB2000FFF77AFEA02280211C4BD2058905D15037
:10DB300080214903D15000232370BEE700221A70D0
:10DB4000F9E7174E1749337880220B70AB23164D37
:10DB5000520028684B70FFF7E1FD2B68134A93428F
:10DB600001D801332B6000233370DBE7CE25002082
:10DB700018270020CD250020F853E3A59BC4304092
:10DB8000D02500200090004044050000E420002043
:10DB9000F4250020CC2500201C2800200C050000C6
:10DBA000722B0020702A0020D4250020FF0F0000D7
:10DBB000F0B5DE46454657464E46E0B53020CFB07C
:10DBC00004F07EFD0200010080461032083102F0B0
:10DBD00017FC42464146404628322031183002F0B8
:10DBE000A5FB8F4E8F4D34688F4FE300ED182A68E8
:10DBF0006B683868796803F0E7FF43461A685B682A
:10DC00002A606B6043461A685B6802F019FF0134B2
:10DC100038607960012C00DCE6E000233360834B40
:10DC200000221C685D689A46814B200099462900B5
:10DC3000804B03F057FD804A4B4693467F4F186058
:10DC400059603E682000F3009B445B4629001A6837
:10DC50005B6803F0B9FF5A464346DC689B68136073
:10DC6000546043469A68DB6802F0EAFE5346013688
:10DC700018605960012E00DCBAE000233B600022EE
:10DC80006C4B03F02FFD4B466D4A186059606D4B8D
:10DC9000924699466C4D0C900D912C684946E300D4
:10DCA0009A445346086849681A685B6803F08CFF19
:10DCB000564643461A695B693260736043461A6987
:10DCC0005B6902F0BDFE4B46013418605960012CBF
:10DCD00000DC8BE000232B600022564B03F002FD9A
:10DCE00004000D000122594B1C605D60584B5A64C2
:10DCF000584A9B589946584B18689A4604F036FB88
:10DD0000564A574B03F0EEFC0F00FA21060089003B
:10DD1000484602F0EBFD04F029FB02000B00300046
:10DD2000390002F08DFE02F06DFE4E4B4E499946D1
:10DD30001B680A940B95C21A0C9B0D9C08930994BE
:10DD40004A4B0EA85C681B68069307944346DC6A3E
:10DD50009B6A0493059443465C6A1B6A029303948E
:10DD60004346DC699B690093019404F091FD0EA881
:10DD700004F0AEFDFF2480223D4D04402978C6B258
:10DD80000B195200934235DC3A48081822000EA9BC
:10DD900004F0A0FC01222B78F6182D4B2E705A644B
:10DDA0002C4A9E585346186804F0E0FA2B4A2C4B34
:10DDB00003F098FC0D00FA2104008900300002F005
:10DDC00095FD04F0D3FA02000B002000290002F0B8
:10DDD00037FE02F017FE4B4618604FB03CBC904631
:10DDE0009946A246AB46F0BD346018E72C6073E755
:10DDF0003E6044E700231F4F7B701F4B39709846ED
:10DE000018683900FFF78AFC43461C4A1B68934296
:10DE100002D8424601331360002338002B70B5E767
:10DE200028280020882B00203028002048280020A7
:10DE3000382800200000E03F602A00204028002011
:10DE4000782B00206028002058280020502800202F
:10DE5000009000404405000018270020F853E3A577
:10DE60009BC43040F0250020343B020020280020D5
:10DE7000722B0020702A0020D4250020FF0F000004
:10DE8000F0B5DE4657464E4645468222E0B5564C32
:10DE90005200A54403AB180000219946FDF7AAF9EA
:10DEA00080231B019B4604239846504B4E469A46BE
:10DEB0004F4F82220021520044A8FDF79BF9822295
:10DEC0000021520085A8FDF795F988226B46520083
:10DED0009B180E3AFF3A12211A705B466A46FF31D0
:10DEE00052181B0C13705B466A46013152181B0A0C
:10DEF000142113706A460023FF31521813708222D6
:10DF00000533FF330093520085AB44A9394802F032
:10DF1000A9FB53461B78002B06D140BF20BF20BF72
:10DF200053461B78002BF8D0802286A9520030007F
:10DF300003AE04F0CFFB35782F492B00424685A86D
:10DF400004F0A6FC00240021142D4ADD02317118D2
:10DF500014223868143401F0A5FAE4B21420FEF754
:10DF600025F821002B1B142BF0DC0234DDB2A14676
:10DF7000B144142D12D9330000244E469946143D65
:10DF80003119142238681434EDB201F08BFAE4B27E
:10DF9000142DF4D84B46B1461E00A144AAB24946FE
:10DFA000386801F07FFA1420FEF700F87378AB2B85
:10DFB0000ED001239C461E20E044FDF7F7FF80238E
:10DFC0005B009C468023E3445B01984500D070E7EA
:10DFD000C7239B009D443CBC90469946A246AB4655
:10DFE000F0BD0234C3E7C046E4FCFFFF582A00201E
:10DFF00014260020743B02007C3B0200F0B5D6469C
:10E000004F464646A024A223C0B5E405DB00E358F2
:10E01000444A9B05DB0F82B01370FFF71BFD424B98
:10E020001A78002A2CD1414B1B78002B22D00122D8
:10E030003F4B5A643F4A9E583F4B186804F096F98C
:10E040003E4A3F4B03F04EFB0D00FA2104008900CD
:10E05000300002F04BFC04F089F90B0002002900AB
:10E06000200002F0EDFC02F0CDFC364B1B68C01A1C
:10E07000642847D802B01CBC90469946A246F0BD21
:10E0800000221A70A123DB00994680239B05984645
:10E0900080264B4642467603E2506420E650FDF768
:10E0A00085FF4346284D642063516651FDF77EFF8E
:10E0B0004B4642466420E250E650FDF777FF434668
:10E0C00063516B46DF1D3E2366513B701F4B01229F
:10E0D000390018689A4601F0E5F9FFF7D1FE3C23B4
:10E0E0003B70534601221868390001F0DBF94B46BA
:10E0F00042466420E250E650FDF758FF4346635124
:10E10000665190E7A024A12380268025E405DB004A
:10E11000B6056D03E650E550FFF74AFD0A4BE650A1
:10E12000E550A7E7CE250020CC2500201C280020A4
:10E13000009000404405000018270020F853E3A594
:10E140009BC43040F02500200C0500001426002060
:10E15000F0B5C64600B5AEB005AE3200834B03CB7A
:10E1600003C21B880521138000200023804AFDF78D
:10E170009BFC002800D0CBE07E4F12AD3B002A0074
:10E18000103313CB13C27C4B7C4A2093802320ACEA
:10E190005B006360A260E360794AFD3B21002800D8
:10E1A000FDF778FE002800D0DCE0764A76490320AF
:10E1B000FFF716F8002800D0D1E021000020FFF77B
:10E1C00053F9002800D0C7E0FB694822039312935B
:10E1D0006E490023280001F089FA002800D0B8E039
:10E1E00022000121002001F0E1FA002800D0ADE07A
:10E1F000674801F0F3FA002800D0A4E0200001F005
:10E20000F7FA002800D09BE0624801F0ADFA002840
:10E2100000D092E01123604F2B70380004F058FBBF
:10E22000390082B22800FFF76FF9002800D081E0A2
:10E23000082200212000FCF7DDFF584B200020932E
:10E24000C8235B042193FFF75DF900286FD10021FB
:10E2500004222000FCF7CEFF514B21002093514BAC
:10E260001800984601F05EF800285DD138220021A0
:10E270002800FCF7BFFF02232B70A0233822DB000D
:10E28000002120006B80FCF7B5FF012308AF23823B
:10E29000454B2422002138006361FCF7ABFF0123CA
:10E2A00040223B73B4230C920D9300233A00009359
:10E2B00021003E4B280000F065FD002831D11C22D2
:10E2C00000212000FCF796FFA02292026260F0225B
:10E2D00000231203A26003222093E3812374344BB2
:10E2E00020006361334B2273A36100F053FF0028C9
:10E2F00014D13100304804F09FFA032000F0E6FD0D
:10E30000002808D14046FFF725FBFFF777FEFCE722
:10E31000FDF76EF830E7FDF76BF8F3E7FDF768F807
:10E32000E7E7FDF765F8CAE7FDF762F89EE7FDF756
:10E330005FF88CE7FDF75CF87AE7FDF759F869E7D5
:10E34000FDF756F860E7FDF753F857E7FDF750F88B
:10E350004EE7FDF74DF843E7FDF74AF834E7FDF7E0
:10E3600047F82AE7FDF744F81FE7C046683B02007C
:10E37000BC230020143B0200182600201C2700208C
:10E3800071D6010015D60100CD0C000084250020B7
:10E39000E81F00207DD50100583B020010003C0022
:10E3A0002DD50100F8250020E8200020D5D6010059
:10E3B00059D5010025D50100643B020071DF70478B
:10E3C00072DF704779DF70477DDF704765DF704728
:10E3D000F0B557464E464546DE46E0B587B098460E
:10E3E00012AB1B88119F01933B88814603930388DE
:10E3F0008A460292002B5DD000239B4604AB00248A
:10E40000DD1C04E04B461B8801349C422FDA534646
:10E410001B68A1009C460422614405A804F05AF937
:10E420000022290005A8FFF7D1FF061E2BD12B786B
:10E430004345E7D1434659463A88D31800292AD0A4
:10E440000199994238DB109B29009C4605A862443B
:10E45000FFF7BCFF002831D13A882B7801349B1894
:10E460003B8001239B464B461B889C42CFDB5B468F
:10E47000002B1FD03B88039A013B9B1A9BB2FF2BBA
:10E480001AD810998B54300007B03CBC904699467E
:10E49000A246AB46F0BD0199023399420CDB013232
:10E4A000109B029992B23A8099543A88013292B202
:10E4B0003A80C8E70026E6E70C26E4E70600E2E734
:10E4C000F0B557464E464546DE460023E0B5178870
:10E4D0001380436B87B006000D001400002B00D1A1
:10E4E0007EE1022F00D83AE11A7802230B70112145
:10E4F000238801339BB22380E954238801339BB2E4
:10E500002380EA54238801339BB22380326B002A94
:10E5100000D170E019001231B94200D91FE1112178
:10E52000E9542388013901339BB22380E9542388BD
:10E5300001339BB22380D17BE954238801339BB202
:10E540002380917BE954238801339BB22380517B44
:10E55000E954238801339BB22380117BE95423883B
:10E5600001339BB22380D17AE954238801339BB2D3
:10E570002380917AE954238801339BB22380517A16
:10E58000E954238801339BB22380117AE95423880C
:10E5900001339BB22380D179E954238801339BB2A4
:10E5A00023809179E954238801339BB223805179E8
:10E5B000E954238801339BB223801179E9542388DD
:10E5C00001339BB22380D178E954238801339BB275
:10E5D00023809178E954238801339BB223805178BA
:10E5E000E954238801339BB223801278EA542388AC
:10E5F00001339BB223802E22B25C002A00D0CBE0F4
:10E600002D22B25C002A00D0A6E0B278002A00D009
:10E61000E8E0F278002A00D0A9E07268002A15D05C
:10E62000D91CB94200D99AE002211278E954238812
:10E63000083101339BB22380E954238852B201335D
:10E640009BB22380EA542388013323803389002B33
:10E6500000D01AE1338A002B00D035E1338B002B38
:10E6600000D050E1336A002B43D022889146063215
:10E67000BA4200D973E01A88052A00D8FEE0B149F1
:10E68000B148511889B28446814200D8F6E05988D1
:10E69000052900D8F2E0AB4880468844404680B265
:10E6A000604500D8EAE0A948824204D0814202D005
:10E6B0008A4200D9E2E0052249466A5412212288A2
:10E6C000013292B22280A9542288013292B2228071
:10E6D0001988AA181170090A51702288023292B260
:10E6E00022805988AA181170090A517023880233B0
:10E6F0002380736A9846002B23D09A882088911C27
:10E70000831C5B18BB422AD8FE2928D803322A541E
:10E71000FF22238801339BB22380EA544246238898
:10E7200001339BB223801288EB181A70120A5A70B8
:10E7300043462088023080B220809A88002A00D088
:10E7400082E12C23F35C002B00D001E13378002B15
:10E7500000D08FE0002003E00933BB4262D90C20D7
:10E7600007B03CBC90469946A246AB46F0BDD91CCA
:10E77000B942F4D80221E9542388013901339BB20C
:10E780002380E954238801339BB22380EA542388F1
:10E7900001339BB2238040E7D91CB942DFD8022164
:10E7A0001C20E954238801339BB22380E85423883A
:10E7B00001339BB22380022A00D15CE160D9032A95
:10E7C00000D156E1042A59D10322EA542D2223888C
:10E7D00001339BB22380B25C002A00D115E7BBE76E
:10E7E000002393E60433BB42B9D804A8FFF7EAFD3F
:10E7F0000028B5D103222388EA5423881632013336
:10E800009BB22380EA546A462388128A01339BB262
:10E810002380EB181A70120A5A70238802339BB2B5
:10E820002380F6E604A8FFF7C9FD002800D097E78B
:10E830000822112123886944EA54238813320133C2
:10E840009BB22380EA542088153A013080B22080A0
:10E85000281803F03FFF6A462388127C06339BB2D8
:10E860002380002A00D0FCE0EA54238801339BB2C5
:10E870002380CAE63288012A00D0B6E007206FE77D
:10E88000012AFBD10022EA54A0E70823984604336A
:10E890009946B044B1440297019400950A3B022284
:10E8A00049464046FFF794FD002800D058E70297FC
:10E8B000019400951023062249464046FFF788FD43
:10E8C000002800D1C6E64BE710239846043399464A
:10E8D000B044B144029701940095123B032249468B
:10E8E0004046FFF775FD002800D039E702970194F4
:10E8F00000951023072249464046FFF769FD00288E
:10E9000000D1ABE62CE71823984604339946B0446F
:10E91000B1440297019400951A3B1422494640469F
:10E92000FFF756FD002800D01AE7029701940095E2
:10E930001023152249464046FFF74AFD002800D122
:10E9400090E60DE77FF3FFFF7DF30000FFFF00007F
:10E95000B36A9846002B91D09B880233FE2B00D9D6
:10E96000FDE60022914616329246163293462088E2
:10E97000524601332B54238801339BB22380EA543F
:10E980004246238801339BB223801288EB181A7009
:10E99000120A5A7043462088023080B220809A883A
:10E9A000002A0CD09968002900D167E7281803F0E5
:10E9B00091FE434620889B88C01880B220804B4639
:10E9C0000133DBB299465B46F35C4B4500D8BDE6AC
:10E9D0004B46B26A5B0090464B449B0098444346CA
:10E9E0009B880233FE2BC3D9B9E62288901CB8421B
:10E9F00000D9B4E6012B05D1737802339B189F42EE
:10EA000000D2ACE66B46023FBF1ABFB2281804A979
:10EA10001F82FFF7D9FC002800D0A1E63378022B33
:10EA20002CD0012B1FD00822FE2F00D997E6238877
:10EA3000791CE954238801339BB22380EA5423884C
:10EA40000133FF1827808BE69968002900D115E76C
:10EA5000281803F03FFE4246238892889B182380A3
:10EA60006FE6012200E773789F42DCD31F00082283
:10EA7000DAE7E954AAE60122EA54A7E66B461B8AC4
:10EA80009F42D0D31F000922CEE7C04630B593B0D5
:10EA90001F236A4604000D009380D380002821D0F4
:10EAA000C3785B0726D501AA02A9FFF709FD002854
:10EAB00016D102AC002D19D0EB78002B1AD16B4681
:10EAC0000AA99A1D2800FFF7FBFC002808D16B4615
:10EAD0009B790AAD6A46200011792A00FFF770FC85
:10EAE00013B030BD6B469880002DE5D16B46DD80BC
:10EAF0000023EFE70720F3E773DF704774DF704709
:10EB0000F0B5954D072287B000212800FCF772FB75
:10EB1000924C934B2268934E1A4212D0924F337804
:10EB20003A68012B00D1E7E0A178002900D1EDE09F
:10EB3000022B10D1002A00D0E0E08C4B1A7000228A
:10EB40005BE0894FA17833783A6800293AD1012BEC
:10EB50003CD0022B51D0217B002901D1032B66D060
:10EB6000217E002901D1042B66D0002A03D0033B6B
:10EB7000012B00D8A6E000227D4B1A70182200213C
:10EB80006846FCF737FB00226B461A701A7233781E
:10EB900001920392022B00D1A3E052D9032B66D03D
:10EBA000042B00D084E06946E2690A82226A4A8224
:10EBB00070490A79087B024300D0AFE004226E4B13
:10EBC0001A7046E0022BB5D0012BC4D16378002B1C
:10EBD00011D06B78002BCED1AB78002BCBD1EB785A
:10EBE000002BC8D12B79002BC5D16B79002BC2D15A
:10EBF000AB79002BBFD102233370A378002B11D047
:10EC00006B78002BB7D1AB78002BB4D1EB78002B0D
:10EC1000B1D12B79002BAED16B79002BABD1AB7975
:10EC2000002BA8D103233370237B002B47D104236F
:10EC30003370237E002B42D100234F4A3370137070
:10EC400099E7012B34D1694604924B4A01950B7028
:10EC500013706846FFF750FF002806D13B68002B71
:10EC60002BD0454A10789847002007B0F0BD6A467F
:10EC700063695382236913823E4A1379117B0B43E4
:10EC800048D02378002B45D03C4B1B78002B41D13A
:10EC9000694602333A480B72023300210392C37073
:10ECA000FFF7F4FE0028E0D10522334B1A703378C9
:10ECB000002BCED13B68002BD3D10020D5E7002A12
:10ECC00000D158E72378002B00D154E72B4B1B7859
:10ECD000002B00D04FE70121254B072019709047EA
:10ECE0004CE7694601220A70A26801954A8262686F
:10ECF0000A82214A1370ACE7002A29D001211B4B5C
:10ED00000820197090473A68337820E7022B00D02A
:10ED100021E787E70322184B1A709AE72278002A26
:10ED200000D14BE7154A1278002A00D046E7684622
:10ED300002320272124803910021C370FFF7A6FE4F
:10ED4000002800D091E706220B4B1A703378AFE70A
:10ED5000064B1A703AE7C046042900206C280020B0
:10ED600000FFFF0069280020D02800200029002093
:10ED70005029002040290020682800205129002027
:10ED800090280020F8B504000E00002800D17DE096
:10ED9000002A00D17AE000203D4908703D490B600F
:10EDA00006993D4B19603D490B0023CA23C323CA72
:10EDB00023C323CA23C3072200213948FCF71AFAC8
:10EDC000384B394A394D1A60394A00219A60280077
:10EDD0003822FCF70FFA237822002B70A378103228
:10EDE000AB70E378EB7063786B702B00103303CA61
:10EDF00003C32B00103A083303CA03C32B000832A5
:10EE0000183303CA03C3636A002B11D0294B2A4F5E
:10EE10006B62616A9F600A881A80888898800028DF
:10EE200006D000238A68D25CFA5401338342F9D3B6
:10EE3000A36A002B14D0214B214FAB62A16A9F60C3
:10EE4000888898800A881A80002806D000238A685B
:10EE5000D25CFA5401338342F9D32C23E25CEA54A6
:10EE6000236A002B06D0174B2B62226A51885980E7
:10EE700012881A806368002B03D0134B6B606368A1
:10EE80006B6031002800FFF701FEF8BD0E20FCE7A3
:10EE900069280020D0280020CC2800206C280020E1
:10EEA0000429002040290020542900209028002017
:10EEB00074290020F4280020D42800200C290020E8
:10EEC00018290020382900203C2900200E4B00B5CD
:10EED0001870002383B001A80193FDF7CFFE082826
:10EEE0000AD0002802D1019B002B0AD00122002069
:10EEF000064B1A7003B000BD01A8FCF739FF0028CB
:10EF0000F1D0FFF7FDFDF5E769280020C8280020B3
:10EF100000B5038883B0112B05D01B2B24D0102BF8
:10EF20001BD003B000BD0023294A1370294A8188F1
:10EF300012889142F5D10121274A01A8117001934D
:10EF4000FDF79CFE08282ED0002802D1019B002B43
:10EF50002ED00122214B1A70E3E7837D012BE0D1F3
:10EF600082881C4B1A80DCE7027A002AD9D11A4920
:10EF70000B78022B26D00CD9032B25D0042BD0D113
:10EF8000174B1A70174B1B68002BCAD000209847EC
:10EF9000C7E7012BC5D1022301A80B700192FDF731
:10EFA0006DFE0828D0D101A8FCF7E2FE0028CDD0E4
:10EFB000FFF7A6FD0028B4D00B4B1B68002BB0D088
:10EFC0009847AEE70323E7E7054803700423E3E728
:10EFD00051290020EE20002069280020C8280020A8
:10EFE00068280020D0280020CC28002030B51F4BF6
:10EFF00083B01B78002B03D01D4D2B78002B03D042
:10F000000024200003B030BD1A4B1B78002B03D026
:10F01000FFF774FD041EF4D1012317482B70002163
:10F020000533C370FFF732FD041EEAD1019001A839
:10F03000FDF724FE082812D000280CD1019B002BDC
:10F0400009D1FFF75DFD0028DAD00C4B1B68002BBF
:10F05000D6D09847D5E70122094B1A70D1E701A80D
:10F06000FCF786FE0028E9D0EBE7C0466C280020BC
:10F07000512900206928002090280020CC28002059
:10F08000C828002075DF704776DF70477ADF704749
:10F090007BDF704710B5184B82B01888174B984229
:10F0A00014D0174A174C13780133DBB21370217B4D
:10F0B00099420DD200231370237C002B12D1636977
:10F0C000002B03D0002201A80270984702B010BDA7
:10F0D0000D49FFF7D7FF0028F8D0A369002BF5D022
:10F0E0009847F3E73B21FFF7CFFF0028E7D0A3695C
:10F0F000002BE4D09847E2E796290020FFFF0000AC
:10F10000E429002098290020DC29002030B51B4B81
:10F110001B4A5B88118883B099420CD852889A4266
:10F1200009D3184B5B69002B03D0012201A80270A0
:10F130009847154C0BE0144C2378002B0BD0114B47
:10F140005B69002B03D0002201A8027098470023BE
:10F15000237003B030BD0D4B0A4D1B78002B0BD034
:10F16000A96800220A48FCF727FD0028EFD0AB6908
:10F17000002BECD09847EAE76968F2E7D429002031
:10F18000DC2900209829002094290020E42900206F
:10F19000B4290020164902000B0070B532CA32C3F0
:10F1A00032CA32C312681A600022124B01681A7008
:10F1B000002916D0104C0832200003F08BFA2000F2
:10F1C000FFF764FF00280BD101220C4B52421A803A
:10F1D00000220B4B00211A700A480B4AFCF7D6FCA0
:10F1E00070BD0548FFF754FF0028EDD0F8E7C04692
:10F1F0009829002094290020DC290020962900204D
:10F20000E4290020843B020095F0010010B503883A
:10F21000112B24D009D9122B1AD0502B04D1214CF8
:10F22000C288E3899A422CD010BD102BFCD1828871
:10F230001D4B18301A801D4B06C806C300221C4BFC
:10F240001A70184BDB89002BEED1FFF75FFFEBE75D
:10F25000164B083006C806C3FFF758FFE4E7012243
:10F26000114B52421A800022114B12481A70FCF7BF
:10F270001DFD0028D8D00B4B9B69002BD4D098479C
:10F28000D2E7038A022BCFD1837CDB07DDD4094888
:10F29000FCF70CFD0028C7D0A369002BC4D0984709
:10F2A000C2E7C0469829002096290020D4290020D2
:10F2B000E4290020B4290020A0DF7047A2DF7047B6
:10F2C000A6DF704763DF704710B5002808D000291B
:10F2D00006D00B88112B15D0502B05D0102B00D049
:10F2E00010BD8B888382FBE7CB88028A9A420DD0BF
:10F2F00082889A42F4D18369002BF1D00A8A1231B4
:10F300009847EDE701235B428382E9E70A8A022AF4
:10F31000EED18B7C013A134002D001238375DFE7E5
:10F320008375DDE7F0B557464E464546DE46E0B507
:10F3300095B0040004A80200584BE0CBE0C21B6863
:10F340001360002C00D1A6E0002900D1A3E0012326
:10F350005B42A3820B682100A3610023A375FFF722
:10F36000B1FF071E07D0380015B03CBC9046994647
:10F37000A246AB46F0BD237802A98B700123A21CE4
:10F38000012099460B80FFF797FF071EEBD1032260
:10F3900000216846FBF72EFF414B0DAD9A466B46A8
:10F3A00052461A8006229B7800219343022213437F
:10F3B0006A46280093701C22FBF71CFF10222B7852
:10F3C00001AE13432B706B466A466B6123780021B4
:10F3D000937303233000938103226F60EF602F61EA
:10F3E000AF61FBF707FF53461F223380B378934684
:10F3F00093431C3A13430021113208A8B370FBF762
:10F40000F9FE03AB08934B460A93133398466B46B9
:10F4100041469985230008A90A0060880C33290019
:10F420000996FFF74BFF071E9DD11C2200212800E3
:10F43000FBF7E0FE0C2269462B7830009343134320
:10F440002B70237803228B7302238B8100216F6042
:10F45000EF602F616F61AF61FBF7CCFE53465946F9
:10F4600003223380B37808A88B4313430021113261
:10F47000B370FBF7BFFE03AB08934B4642460A93BB
:10F480006B469A856088231D08AA29000996FFF714
:10F4900015FF070067E70E2765E7C046883B0200B7
:10F4A00011110000F0B587B06B4604000F009D1DE0
:10F4B000DA8000281FD0828A104B9A4219D0837DAF
:10F4C000002B16D02B88142B11D802AE002110224D
:10F4D0003000FBF78FFEA389A08A3380012331001F
:10F4E000F760B560B370FFF7EBFE07B0F0BD072023
:10F4F000FBE70820F9E70E20F7E7C046FFFF000012
:10F500002C4B1B78012B00D070472B4B1B681B0723
:10F51000FAD1F022294B1B68134001D0102B46D1A1
:10F52000274B1B6813421FD0F022244B1B6813404B
:10F53000402B29D0F022214B1B681340A02B01D077
:10F54000D02BE1D1F0231E4A12681A42DCD11D4AA9
:10F550001368012B04D01C4B13601368012BFCD1E2
:10F56000C0221A4B1A60CFE7194B1A4A1A60802240
:10F57000194B12021A600F4B1B78012BC4D10E4B92
:10F580001B681B07D0D0BFE70D4B1B681342D1D1BE
:10F590008022C1230121DB00D205D150054B1B780D
:10F5A000012BB1D1044B1B681B07C3D0ACE7302B38
:10F5B000B6D0B9E7E00F00F0E40F00F0E80F00F07C
:10F5C000EC0F00F000EC06407593000014EC0640D0
:10F5D00004050040DFFF07C0186C004052DF704791
:10F5E00010DF704760DF704761DF704710B5FBF7D1
:10F5F0000FFF10BDF0B5D6464F464646C0B5374B57
:10F6000082B01E68994675427541354BEDB29A46F7
:10F610001B68002B4ED1002E05D102B01CBC9046B9
:10F620009946A246F0BD2F4B012698462E4F01ACBD
:10F630003B882100238043461D682800FFF7D4FF44
:10F6400005282CD0002824D14B4628001B68984759
:10F65000002E22D12000FFF7C1FF05281DD0002871
:10F6600038D10025534601981B689847002D0BD0D0
:10F670002000FFF7B3FF01250528CED00028F1D0E8
:10F68000FBF7B6FE002DF3D1164B174F9846002618
:10F69000CEE7FBF7ADFE002EDCD00126C8E7002E3A
:10F6A000BBD12000FFF79AFF0528B6D000280ED165
:10F6B0000125D7E701AC2000FFF790FF0528DDD139
:10F6C000002EAAD0074B0126074F9846B0E7FBF75C
:10F6D0008FFECDE7FBF78CFE0026A9E7E829002086
:10F6E000F4290020F8290020E629002010B500297F
:10F6F00021D08C071FD1144C216014490A80144A70
:10F7000014491360FFF76CFF002800D010BD0122E0
:10F71000114B12491A70C5239B00CB589B0D1A42FE
:10F720000BD00F4B5A68002A09D080221968D203E7
:10F730000A431A60EAE70720E8E70A48E6E7802379
:10F74000DB030B60E2E7C046F8290020E629002031
:10F75000EC290020EDF50100F029002000E100E097
:10F76000982B002002200000002803D0024B1860D4
:10F77000002070470E20FCE7E829002010B5094B57
:10F780001B68002B06D09847002800D110BDFBF75E
:10F790002FFEFBE7044B1B78002BF7D0FFF72AFF67
:10F7A000F4E7C046EC290020F029002070B51400D1
:10F7B00005000E00142200212000FBF71BFD002392
:10F7C00001222361237B2280934323732672657277
:10F7D000002D01D00123A372002070BD0020034B37
:10F7E00082B00193019B02B07047C0468020002088
:10F7F00000B5054B83B00193019B69460093FFF769
:10F80000F1FE03B000BDC04680200020F0B54546A3
:10F81000DE4657464E46E0B509AC25780AAC24785A
:10F82000A4460C78002C17D11678B04692267600A4
:10F830008759B346002F20D03300243BFF3B84512F
:10F8400043610B70A8450FD0012420003CBC9046BA
:10F850009946A246AB46F0BD922200235200835047
:10F86000083A8350143A835082235B00C258002A1E
:10F87000EAD000220024C250E7E78E267600B14687
:10F880008659002E0BD04E4687515E468659002E73
:10F8900022D05B46C750012343610B70D2E784241A
:10F8A00064000759002FCDD006515C460459002C46
:10F8B00022D111788D42C5D9A324E40004595C54A7
:10F8C00013780133DBB213706A1E93421DD09D4240
:10F8D000B8D001230362B5E711788D4205D863469D
:10F8E000002B0FD101234361ACE7595C094BC15098
:10F8F000137801331370A5E701235A4686504361FC
:10F900000B709FE70123C3619FE7802302229B00C6
:10F91000C250DEE71C050000F0B54E464546DE4607
:10F920005746E0B583B000900679764CB500A8192B
:10F93000C000201822300078002800D0E0E0002924
:10F9400000D1D9E0A819C00022502218536010003D
:10F95000002325309360243203701370A0230A68BB
:10F960006948C132FF32DB059200D0504A68C1328B
:10F97000FF329200D050012002000F68BA40944636
:10F98000A1226746D2009F504F68B840985008683F
:10F990005E4FC130FF308000C7504868C130FF3033
:10F9A0008000C75004200138C046C046C046C0464B
:10F9B000C046C046C046C046C046C046C046C04617
:10F9C000F1D100209846A22384465148DB009A4694
:10F9D0008146012301924868574683464046C059F4
:10F9E0005F46F840034200D082E018000F684A46A4
:10F9F000B8404746B85004200138C046C046C0460B
:10FA0000C046C046C046C046C046C046C046C046C6
:10FA1000C046F1D118000A68019F90404246D0517B
:10FA200004200138C046C046C046C046C046C04655
:10FA3000C046C046C046C046C046C046F1D10122BD
:10FA40009346DC446246092AC5D14B689B46012394
:10FA500058461A0082409446A02267462C48D20598
:10FA6000175004200138C046C046C046C046C046B4
:10FA7000C046C046C046C046C046C046C046F1D19A
:10FA800048688340A120C0001350A0220B681E4884
:10FA9000C133FF33D2059B0098504B68C133FF330D
:10FAA0009B009850A122009B0F681B68D2004868F9
:10FAB0009F50174A98508868164A9850AB19DB0037
:10FAC000E358002B06D0009B097B1868000B40B25E
:10FAD000FCF78AFA01230020AD19ED0064192234E5
:10FAE000237003B03CBC90469946A246AB46F0BD9D
:10FAF0006346002BABD1C8E707483101411821E725
:10FB00000820EEE7FC2900200C0600000D0600008E
:10FB10000C05000024050000983B0200A023027998
:10FB200001680520DB00C85093009A18034BD200EF
:10FB30009B18022222331A707047C046FC2900200D
:10FB4000F0B5DE46454657464E46E0B589B00193CE
:10FB500012AB1B7805AC1D008146009288460C2232
:10FB6000002120000393FBF745FB2B005A1E934115
:10FB70005B0102934B461B79C2219C46804B0120BE
:10FB80009B4663469B001A009A464B466244D2004D
:10FB90001B68890040425A445850100024300178B4
:10FBA000C9B2002900D0A0E0012707700298019D8A
:10FBB0009061404660701000009EA57006960C3063
:10FBC000B946E0CCE0C0019D44460572B120C000BA
:10FBD0001C501000039C213004708220140040004F
:10FBE000195020301950083819502634143819503B
:10FBF0002170F830033C195021704946009EDB38D3
:10FC0000D661FF3819629960115C8D421BD9745C12
:10FC10005C495C50115C01311154524659466244B2
:10FC2000D20089585A4400291AD0574900209160BF
:10FC30009168C1229200995009B03CBC9046994607
:10FC4000A246AB46F0BD029A002A54D14A465A61F8
:10FC5000524659466244D20089585A440029E4D198
:10FC60009046233141440392019A89469221002013
:10FC70009046009E49004A461278002A3ED1039DD4
:10FC80005C5826352F78002C4AD18E2252009A5883
:10FC9000002A3AD08E2252009C505A58002A45D051
:10FCA0005C5001224C465A612270B845E3D1822251
:10FCB00052009A58002ADED08221002249005A5070
:10FCC00053465A466344DB00D218110023310878AA
:10FCD000414248410221404288435946CB580330B3
:10FCE000002BA9D124321370A6E79168C12292009B
:10FCF00099501120A0E74A46DA618EE78E22520021
:10FD000058509850143A9850D1E7842464001C59F4
:10FD1000002CCAD0842464001A515C58002C13D0E3
:10FD20005A504C4601225A612270BEE7B84505D8A8
:10FD3000029A002A1BD101225A61B6E7F45D114AEA
:10FD400001379C502F7096E7B845AED9A3224446A0
:10FD5000D2009A58013CF2552A780132D2B22A7068
:10FD6000A24207D0904586D001221A6283E7012281
:10FD7000DA61A5E78022022492009C50F4E7C04695
:10FD8000FC2900201C05000086020000F0B5DE46BC
:10FD900057464E464546E0B589B0039305AB9A46B3
:10FDA00002AB9C4604000E20029260440A228B465D
:10FDB0000021FBF71FFA237901229C46C223246805
:10FDC0009B005242E250474B984663469B0099463F
:10FDD0006344DB0043441A0024321178C9B200297D
:10FDE00041D101201070524610705846039D50704A
:10FDF0009570029A504606921A0099610C32E0C83A
:10FE0000E0C2039D58461572029ADA61B122D2000F
:10FE1000A0501A002132117082225200A1502032CB
:10FE2000A150083AA150143AA1501A0023332632A7
:10FE300011701970012D22D0802301229B00E25005
:10FE40000123236223604B4642466344DB00D258C1
:10FE5000002A19D0244A43449A609A68C1239B001F
:10FE6000E250002004E09A68C12311209B00E25078
:10FE700009B03CBC90469946A246AB46F0BD8023F3
:10FE800002229B00E250DBE71A00263343449A46E5
:10FE90002332039B424457461500E3469A46029E8E
:10FEA0000023019353463A000093290033002000B9
:10FEB000FFF7ACFC0028F3D15E4643464E44F60003
:10FEC0009B191A00233210784242504102224042CC
:10FED0009043424692590330002AC9D124331A7004
:10FEE000C6E7C046FC29002086020000F0B5D646D1
:10FEF0004F4646462321C0B5954B86B0585C002836
:10FF000017D120229A5C92249446262292469E5C27
:10FF1000904A64001559002D36D0105101205061CF
:10FF20005854B4450ED006B01CBC90469946A24623
:10FF3000F0BD92200021874A40001150083811502E
:10FF40001438115082228349520088580028EAD080
:10FF50000020885023215A5C9C69002A47D1187BD5
:10FF6000851E012D57D9190003AA0C31E0C9E0C242
:10FF7000002202A802702422002199546207D2D4E0
:10FF800059681B689847CEE7D86981468E204000A3
:10FF90001758002F0AD02127DF5D1550105900286F
:10FFA0006DD00120155150615854BAE784204000AB
:10FFB0001558002DB5D01750105900286ED1B445F2
:10FFC000AFD9A3214846C9005158815551465046E2
:10FFD000595C0131C9B219546346013B994200D1C1
:10FFE0009EE08C459FD001225A4B1A629BE7190074
:10FFF00003AA0C31E0C9E0C25749564D02A86A581D
:020000022000DC
:100000006A500221114202D001220270B3E7520766
:10001000B1D50170AFE7DD691E69B542A3D12027D4
:10002000DD7B3C40DD552700A0467C1EA7412124F6
:100030005E69FFB2DE611F55032831D08224454836
:100040006400025120340251083C0251143C025118
:10005000E23C1A555A5480229200012D48D00121C9
:10006000815001213B4A116211601968002942D078
:100070003A4999609968C1239B00D15053E7B44530
:1000800004D8002F31D1012151614AE74946885DEA
:1000900033490136505052469E5444E738003CE7FD
:1000A0002C48E334025120340251083C0251143CE4
:1000B0000251F8340251DB3CFF3C1A555A540132CC
:1000C0000262A4468260002D25D034782449445031
:1000D00061465A541A68002A27D0204A9A609968C3
:1000E000C1231C4A9B00D1501DE70121D16131E79A
:1000F00002218150B5E71F0023331C00263700235F
:10010000009501933A00330021001248FFF77EFB6F
:100110000028F4D107E74146002916D14261D9E70A
:10012000802302219B00D1505DE7263290469844FF
:1001300023331C00019700953300424621000548F7
:10014000FFF764FB0028F5D1EDE6C261C2E7C046C7
:10015000FC29002000300040C4040000860200009A
:100160001C05000000230022F0B51B4C1B4F83B080
:100170002360A380A271282122000093380001335C
:10018000FFF7DEFCFF250100154E29403000FBF78C
:10019000FBFD0723220028213800FFF7F7FD290087
:1001A00001403000FBF7F0FD627823780020FB2A45
:1001B00003D1A03B58425841C0B2A378323B5A42C7
:1001C00053415B421840E3780F3B5A4253415B4234
:1001D000184003B0F0BDC046282A0020F0200020BF
:1001E000AC3B0200002370B586B002ACE360032292
:1001F000022302920393CC23494D5B04A3600022A7
:10020000002321002800FFF787FB002800D06FE0C3
:100210002800FFF783FC1E20FBF7C8FEFFF7A2FFB4
:100220001E20FBF7C3FE3E23238000232200009301
:10023000282102332800FFF783FC002800D06CE05F
:100240001E20FBF7B3FE0723364E28213380002300
:100250003200009328000233FFF772FC002859D1C6
:100260003F2323800023220000932821023328000B
:10027000FFF766FC00284AD11E20FBF797FE0723F4
:100280003380002332000093282102332800FFF737
:1002900057FC002838D13B23238000232200009301
:1002A000282102332800FFF74BFC002829D11E200B
:1002B000FBF77CFE072333800023320000932821C4
:1002C00002332800FFF73CFC002817D1164B220010
:1002D0001B88282123800023280000930233FFF786
:1002E0002FFC002807D11E20FBF760FE06B070BD72
:1002F000FBF77EF88CE7FBF77BF8F4E7FBF778F881
:10030000E4E7FBF775F8D2E7FBF772F8C3E7FBF712
:100310006FF8B1E7FBF76CF8A2E7FBF769F88FE736
:10032000F0200020242A0020A83B0200F0B5474618
:10033000CE461A2380B585B0884602930721002354
:1003400017002C4D2C4A02ACA380118081460093EB
:10035000213102332800FFF7F3FB002841D10A20A6
:10036000FBF724FE002322000093282101332800FC
:10037000FFF7E6FB00283AD10623220028212800B7
:10038000FFF704FD00282FD1E578A37866792D02C8
:100390001D43237936021E43637820781B021843DD
:1003A00001F0E4FF0022154B01F09CF94B46186068
:1003B0005960300001F0DAFF0022104B01F092F991
:1003C000434618605960280001F0D0FF00220B4B13
:1003D00001F088F93860796005B00CBC9046994608
:1003E000F0BDFBF705F8BAE7FBF702F8CCE7FAF740
:1003F000FFFFC1E7F0200020242A00200000B03FCA
:10040000F0B5C646082300B584B00F00029307215B
:1004100000231600254D264A02ACA3801180804699
:100420000093213102332800FFF78AFB002834D1E2
:100430000A20FBF7BBFD0023220000932821013393
:100440002800FFF77DFB00282DD10623220028215C
:100450002800FFF79BFC002822D1E578A3782D0225
:100460001D43637820781B02184301F07FFF0022B0
:10047000104B00F05BFE434618605960280001F005
:1004800075FF00220B4B00F051FE38607960306040
:10049000716004B004BC9046F0BDFAF7A9FFC7E74D
:1004A000FAF7A6FFD9E7FAF7A3FFCEE7F02000207E
:1004B000242A002000005940F0B5D64646464F4653
:1004C000C0B54479624DE600331B9B00EB181B79E5
:1004D0009246002B00D0ADE0002900D1A6E05246A4
:1004E000331B9B00EA500B7B0F78012B00D889E06F
:1004F0000123A022BB40A127D205FF00D351A02297
:1005000001270B78D205C133FF339B009F504B78F6
:10051000FF2B00D181E09F409C464E4BD750634655
:100520000327C133FF339B009F508B78FF2B00D1F3
:100530006FE0A02700229846C133FF339B00FF05E0
:10054000DA51CF78FF2F0DD00123A122BB40A02785
:10055000D200FF05BB500322CB78C133FF339B0091
:10056000DA51CF78437999464A46DB009B1A9B00C3
:10057000EB189F710B7807689946A1234A46DB0068
:10058000FA506246334BFA5042460433FA508A68B6
:10059000314BFA500B7B4A7B9846531E9A41434697
:1005A0009446022B48D0032B4AD0012B4CD06246F4
:1005B0002A4BFA504B79984643799C466246DB00B9
:1005C0009B1A42469B00EB18DA715346002B28D049
:1005D000C12304229B00FA50FD33FF33033AFA5043
:1005E0000079097940B2FBF7FFFC00230020341B9F
:1005F000A4002D196B7101332B711CBC90469946D8
:10060000A246F0BD0123A022BB40124FD205D35118
:1006100075E701235B42984693E701235B429C46C2
:1006200083E7A0230122DB00FA50DEE70C4B210117
:10063000591854E70820E0E704231A439446B6E724
:1006400006231A439446B2E701331A439446AEE7B1
:10065000302A00200C05000024050000540500008D
:10066000BC3B0200F0B5454657464E46DE46E0B577
:10067000634D4679A8468A46F1008C1BA400444489
:1006800085B065799C460EAB1B88002D00D0AAE092
:1006900015001D4300D1A4E0A479FF2C0AD0012548
:1006A000A5402C00A025ED05A946564DA8464D466F
:1006B0004746EC51524D8C1BA9465546A400A04616
:1006C0004C44006825616546656100254F46A5815B
:1006D00045467D5922816381AC46002D05D0012518
:1006E0006571C2240335A4000551842400256400EB
:1006F0000551002A19D054462478A0464546424C5C
:100700000551012A19D953465B7803516346002BE2
:1007100020D0C12304229B00C250002005B03CBC65
:1007200090469946A246AB46F0BD354C8A1BA04682
:1007300092004244D479344A8450012BE6D9304A9D
:100740008B1B90469B004344DA792F4BC250634683
:10075000002BDED100229246A322D20091468A1BB2
:1007600091000192264A02AB94460A2261449446C3
:10077000CA1D0092244ADF1D842393465B008C44EB
:10078000C258002AFCD05246C2504A46644682589B
:100790002488D2B23A708A89944202D93C784D6951
:1007A000AC548A890E89541C0232A4B292B28C8154
:1007B000B2421AD365462D88AA421BD3B442DFD376
:1007C000AC42DDD3019B0E4A9B00D518AB79FF2BC1
:1007D00007D001229A40A0211300A122C905D2000E
:1007E0008B5000209AE7112098E70C69A25C5C46C8
:1007F0000251C5E75C46009A12780251C0E7C04634
:10080000302A00200C0500001C0500008422002175
:10081000204B520010B59950A32282B0D2009B58B1
:100820006A46DBB2D3711C4A93895189994204D933
:1008300069465069C979C1549389591C108902339A
:1008400089B29BB2918183421DD35489A34214D3B0
:10085000814216D3A14214D39379FF2B07D00121F3
:100860009940A0200B00A121C005C90043500023DE
:10087000002053711368984703E0D179074B054A6C
:10088000D15002B010BD1269D15C024A034BD15065
:10089000F7E7C04600400040302A00201C05000059
:1008A00003210A4802680A430260094802680A43B1
:1008B00002600849084A094B9B1A03DD043BC858EB
:1008C000D050FBDCFEF71CFEFAF71EFC24050040AE
:1008D00054050040EC3C0200802000200021002054
:1008E000FEE7FEE7FEE7FEE7FEE7FEE7002243083D
:1008F0008B4274D303098B425FD3030A8B4244D3E8
:10090000030B8B4228D3030C8B420DD3FF22090229
:1009100012BA030C8B4202D31212090265D0030BE8
:100920008B4219D300E0090AC30B8B4201D3CB03DE
:10093000C01A5241830B8B4201D38B03C01A524120
:10094000430B8B4201D34B03C01A5241030B8B4222
:1009500001D30B03C01A5241C30A8B4201D3CB020D
:10096000C01A5241830A8B4201D38B02C01A5241F2
:10097000430A8B4201D34B02C01A5241030A8B42F5
:1009800001D30B02C01A5241CDD2C3098B4201D30D
:10099000CB01C01A524183098B4201D38B01C01A8B
:1009A000524143098B4201D34B01C01A5241030902
:1009B0008B4201D30B01C01A5241C3088B4201D3B1
:1009C000CB00C01A524183088B4201D38B00C01A5E
:1009D000524143088B4201D34B00C01A5241411A85
:1009E00000D20146524110467047FFE701B5002092
:1009F00000F006F802BDC0460029F7D076E7704740
:100A00007047C04670B500220C4B04000D0001F089
:100A100011FD002804D12000290001F071FC70BDF7
:100A2000064B00222000290001F0CEF801F068FCFE
:100A300080231B069C466044F1E7C0460000E0416D
:100A4000F8B54746CE460E034D00760ACC0F410F4F
:100A500031438946190380B5490A570F5E000F4399
:100A60006D0DC000760DDB0FB846D2009C4200D160
:100A7000A3E0AF1B002F00DC83E0002E00D1C1E01B
:100A8000C94B9D4200D188E1802341461B04194394
:100A90008846382F00DD5DE11F2F00DD07E22023AF
:100AA00011004646DB1B9E40F9409A400E434146EA
:100AB000531E9A41F9404B465B1A99463243871AB6
:100AC000B84280414B464142591A0B0200D4D7E04C
